{
  "contractName": "Agrinsure",
  "abi": [
    {
      "constant": true,
      "inputs": [
        {
          "name": "",
          "type": "address"
        },
        {
          "name": "",
          "type": "uint256"
        }
      ],
      "name": "userPolicies",
      "outputs": [
        {
          "name": "",
          "type": "uint256"
        }
      ],
      "payable": false,
      "stateMutability": "view",
      "type": "function"
    },
    {
      "constant": true,
      "inputs": [
        {
          "name": "timestamp",
          "type": "uint256"
        }
      ],
      "name": "getHour",
      "outputs": [
        {
          "name": "",
          "type": "uint8"
        }
      ],
      "payable": false,
      "stateMutability": "pure",
      "type": "function"
    },
    {
      "constant": true,
      "inputs": [
        {
          "name": "timestamp",
          "type": "uint256"
        }
      ],
      "name": "getWeekday",
      "outputs": [
        {
          "name": "",
          "type": "uint8"
        }
      ],
      "payable": false,
      "stateMutability": "pure",
      "type": "function"
    },
    {
      "constant": true,
      "inputs": [],
      "name": "resultReceived",
      "outputs": [
        {
          "name": "",
          "type": "bool"
        }
      ],
      "payable": false,
      "stateMutability": "view",
      "type": "function"
    },
    {
      "constant": true,
      "inputs": [
        {
          "name": "",
          "type": "uint256"
        }
      ],
      "name": "cropTypes",
      "outputs": [
        {
          "name": "name",
          "type": "string"
        },
        {
          "name": "premiumPerAcre",
          "type": "uint256"
        },
        {
          "name": "duration",
          "type": "uint256"
        },
        {
          "name": "coveragePerAcre",
          "type": "uint256"
        }
      ],
      "payable": false,
      "stateMutability": "view",
      "type": "function"
    },
    {
      "constant": true,
      "inputs": [
        {
          "name": "year",
          "type": "uint16"
        },
        {
          "name": "month",
          "type": "uint8"
        },
        {
          "name": "day",
          "type": "uint8"
        },
        {
          "name": "hour",
          "type": "uint8"
        },
        {
          "name": "minute",
          "type": "uint8"
        }
      ],
      "name": "toTimestamp",
      "outputs": [
        {
          "name": "timestamp",
          "type": "uint256"
        }
      ],
      "payable": false,
      "stateMutability": "pure",
      "type": "function"
    },
    {
      "constant": true,
      "inputs": [
        {
          "name": "timestamp",
          "type": "uint256"
        }
      ],
      "name": "getDay",
      "outputs": [
        {
          "name": "",
          "type": "uint8"
        }
      ],
      "payable": false,
      "stateMutability": "pure",
      "type": "function"
    },
    {
      "constant": true,
      "inputs": [
        {
          "name": "year",
          "type": "uint16"
        },
        {
          "name": "month",
          "type": "uint8"
        },
        {
          "name": "day",
          "type": "uint8"
        },
        {
          "name": "hour",
          "type": "uint8"
        }
      ],
      "name": "toTimestamp",
      "outputs": [
        {
          "name": "timestamp",
          "type": "uint256"
        }
      ],
      "payable": false,
      "stateMutability": "pure",
      "type": "function"
    },
    {
      "constant": true,
      "inputs": [
        {
          "name": "timestamp",
          "type": "uint256"
        }
      ],
      "name": "getSecond",
      "outputs": [
        {
          "name": "",
          "type": "uint8"
        }
      ],
      "payable": false,
      "stateMutability": "pure",
      "type": "function"
    },
    {
      "constant": true,
      "inputs": [
        {
          "name": "year",
          "type": "uint16"
        },
        {
          "name": "month",
          "type": "uint8"
        },
        {
          "name": "day",
          "type": "uint8"
        }
      ],
      "name": "toTimestamp",
      "outputs": [
        {
          "name": "timestamp",
          "type": "uint256"
        }
      ],
      "payable": false,
      "stateMutability": "pure",
      "type": "function"
    },
    {
      "constant": true,
      "inputs": [
        {
          "name": "year",
          "type": "uint16"
        },
        {
          "name": "month",
          "type": "uint8"
        },
        {
          "name": "day",
          "type": "uint8"
        },
        {
          "name": "hour",
          "type": "uint8"
        },
        {
          "name": "minute",
          "type": "uint8"
        },
        {
          "name": "second",
          "type": "uint8"
        }
      ],
      "name": "toTimestamp",
      "outputs": [
        {
          "name": "timestamp",
          "type": "uint256"
        }
      ],
      "payable": false,
      "stateMutability": "pure",
      "type": "function"
    },
    {
      "constant": true,
      "inputs": [
        {
          "name": "timestamp",
          "type": "uint256"
        }
      ],
      "name": "getYear",
      "outputs": [
        {
          "name": "",
          "type": "uint16"
        }
      ],
      "payable": false,
      "stateMutability": "pure",
      "type": "function"
    },
    {
      "constant": true,
      "inputs": [
        {
          "name": "timestamp",
          "type": "uint256"
        }
      ],
      "name": "getMonth",
      "outputs": [
        {
          "name": "",
          "type": "uint8"
        }
      ],
      "payable": false,
      "stateMutability": "pure",
      "type": "function"
    },
    {
      "constant": true,
      "inputs": [
        {
          "name": "year",
          "type": "uint16"
        }
      ],
      "name": "isLeapYear",
      "outputs": [
        {
          "name": "",
          "type": "bool"
        }
      ],
      "payable": false,
      "stateMutability": "pure",
      "type": "function"
    },
    {
      "constant": true,
      "inputs": [
        {
          "name": "year",
          "type": "uint256"
        }
      ],
      "name": "leapYearsBefore",
      "outputs": [
        {
          "name": "",
          "type": "uint256"
        }
      ],
      "payable": false,
      "stateMutability": "pure",
      "type": "function"
    },
    {
      "constant": true,
      "inputs": [
        {
          "name": "month",
          "type": "uint8"
        },
        {
          "name": "year",
          "type": "uint16"
        }
      ],
      "name": "getDaysInMonth",
      "outputs": [
        {
          "name": "",
          "type": "uint8"
        }
      ],
      "payable": false,
      "stateMutability": "pure",
      "type": "function"
    },
    {
      "constant": true,
      "inputs": [
        {
          "name": "",
          "type": "uint256"
        }
      ],
      "name": "policies",
      "outputs": [
        {
          "name": "policyId",
          "type": "uint256"
        },
        {
          "name": "user",
          "type": "address"
        },
        {
          "name": "premium",
          "type": "uint256"
        },
        {
          "name": "area",
          "type": "uint256"
        },
        {
          "name": "startTime",
          "type": "uint256"
        },
        {
          "name": "endTime",
          "type": "uint256"
        },
        {
          "name": "location",
          "type": "string"
        },
        {
          "name": "coverageAmount",
          "type": "uint256"
        },
        {
          "name": "forFlood",
          "type": "bool"
        },
        {
          "name": "cropId",
          "type": "uint8"
        },
        {
          "name": "state",
          "type": "uint8"
        }
      ],
      "payable": false,
      "stateMutability": "view",
      "type": "function"
    },
    {
      "constant": true,
      "inputs": [
        {
          "name": "timestamp",
          "type": "uint256"
        }
      ],
      "name": "getMinute",
      "outputs": [
        {
          "name": "",
          "type": "uint8"
        }
      ],
      "payable": false,
      "stateMutability": "pure",
      "type": "function"
    },
    {
      "inputs": [
        {
          "name": "_link",
          "type": "address"
        },
        {
          "name": "_oracle",
          "type": "address"
        },
        {
          "name": "_jobId",
          "type": "bytes32"
        },
        {
          "name": "_oraclePaymentAmount",
          "type": "uint256"
        }
      ],
      "payable": false,
      "stateMutability": "nonpayable",
      "type": "constructor"
    },
    {
      "payable": true,
      "stateMutability": "payable",
      "type": "fallback"
    },
    {
      "anonymous": false,
      "inputs": [
        {
          "indexed": true,
          "name": "id",
          "type": "bytes32"
        }
      ],
      "name": "ChainlinkRequested",
      "type": "event"
    },
    {
      "anonymous": false,
      "inputs": [
        {
          "indexed": true,
          "name": "id",
          "type": "bytes32"
        }
      ],
      "name": "ChainlinkFulfilled",
      "type": "event"
    },
    {
      "anonymous": false,
      "inputs": [
        {
          "indexed": true,
          "name": "id",
          "type": "bytes32"
        }
      ],
      "name": "ChainlinkCancelled",
      "type": "event"
    },
    {
      "constant": false,
      "inputs": [
        {
          "name": "_area",
          "type": "uint256"
        },
        {
          "name": "_location",
          "type": "string"
        },
        {
          "name": "_forFlood",
          "type": "bool"
        },
        {
          "name": "_cropId",
          "type": "uint8"
        }
      ],
      "name": "newPolicy",
      "outputs": [],
      "payable": true,
      "stateMutability": "payable",
      "type": "function"
    },
    {
      "constant": false,
      "inputs": [
        {
          "name": "_policyId",
          "type": "uint256"
        },
        {
          "name": "_timestamp",
          "type": "uint256"
        }
      ],
      "name": "claim",
      "outputs": [],
      "payable": false,
      "stateMutability": "nonpayable",
      "type": "function"
    },
    {
      "constant": false,
      "inputs": [
        {
          "name": "_requestId",
          "type": "bytes32"
        },
        {
          "name": "_result",
          "type": "int256"
        }
      ],
      "name": "fulfill",
      "outputs": [],
      "payable": false,
      "stateMutability": "nonpayable",
      "type": "function"
    }
  ],
  "bytecode": "0x608060405260016004553480156200001657600080fd5b506040516080806200380483398101806040528101908080519060200190929190805190602001909291908051906020019092919080519060200190929190505050620000728462000156640100000000026401000000009004565b6200008c836200019a640100000000026401000000009004565b816007816000191690555080600681905550620000f560006040805190810160405280600481526020017f7261626900000000000000000000000000000000000000000000000000000000815250600160066007620001de640100000000026401000000009004565b6200014c60016040805190810160405280600681526020017f6b6861726966000000000000000000000000000000000000000000000000000081525060026004600a620001de640100000000026401000000009004565b5050505062000344565b80600260006101000a81548173ffffffffffffffffffffffffffffffffffffffff021916908373ffffffffffffffffffffffffffffffffffffffff16021790555050565b80600360006101000a81548173ffffffffffffffffffffffffffffffffffffffff021916908373ffffffffffffffffffffffffffffffffffffffff16021790555050565b620001e86200026c565b60806040519081016040528086815260200185815260200184815260200183815250905080600a8760ff166002811015156200022057fe5b6004020160008201518160000190805190602001906200024292919062000295565b50602082015181600101556040820151816002015560608201518160030155905050505050505050565b608060405190810160405280606081526020016000815260200160008152602001600081525090565b828054600181600116156101000203166002900490600052602060002090601f016020900481019282601f10620002d857805160ff191683800117855562000309565b8280016001018555821562000309579182015b8281111562000308578251825591602001919060010190620002eb565b5b5090506200031891906200031c565b5090565b6200034191905b808211156200033d57600081600090555060010162000323565b5090565b90565b6134b080620003546000396000f30060806040526004361061011d576000357c0100000000000000000000000000000000000000000000000000000000900463ffffffff1680633d36adc51461011f5780633e239e1a146101805780634ac1ad78146101c75780634cd38cc21461020e5780635a8f29ed1461023d57806362ba9687146102f857806365c72840146103715780637f791833146103b85780637fd7fe57146104245780638aa001fc146104755780638c8d98a0146104bc5780639054bdec1461051b57806392d66313146105a1578063a324ad24146105ea578063a6f0e57714610631578063b19999371461067a578063b238ad0e146106bb578063bda71d0414610713578063c34902631461074e578063d3e8948314610785578063fa93f883146108b5575b005b34801561012b57600080fd5b5061016a600480360381019080803573ffffffffffffffffffffffffffffffffffffffff169060200190929190803590602001909291905050506108fc565b6040518082815260200191505060405180910390f35b34801561018c57600080fd5b506101ab6004803603810190808035906020019092919050505061092c565b604051808260ff1660ff16815260200191505060405180910390f35b3480156101d357600080fd5b506101f260048036038101908080359060200190929190505050610959565b604051808260ff1660ff16815260200191505060405180910390f35b34801561021a57600080fd5b50610223610980565b604051808215151515815260200191505060405180910390f35b34801561024957600080fd5b5061026860048036038101908080359060200190929190505050610993565b6040518080602001858152602001848152602001838152602001828103825286818151815260200191508051906020019080838360005b838110156102ba57808201518184015260208101905061029f565b50505050905090810190601f1680156102e75780820380516001836020036101000a031916815260200191505b509550505050505060405180910390f35b34801561030457600080fd5b5061035b600480360381019080803561ffff169060200190929190803560ff169060200190929190803560ff169060200190929190803560ff169060200190929190803560ff169060200190929190505050610a60565b6040518082815260200191505060405180910390f35b34801561037d57600080fd5b5061039c60048036038101908080359060200190929190505050610a7c565b604051808260ff1660ff16815260200191505060405180910390f35b3480156103c457600080fd5b5061040e600480360381019080803561ffff169060200190929190803560ff169060200190929190803560ff169060200190929190803560ff169060200190929190505050610a92565b6040518082815260200191505060405180910390f35b61047360048036038101908080359060200190929190803590602001908201803590602001919091929391929390803515159060200190929190803560ff169060200190929190505050610aad565b005b34801561048157600080fd5b506104a060048036038101908080359060200190929190505050610d28565b604051808260ff1660ff16815260200191505060405180910390f35b3480156104c857600080fd5b50610505600480360381019080803561ffff169060200190929190803560ff169060200190929190803560ff169060200190929190505050610d3e565b6040518082815260200191505060405180910390f35b34801561052757600080fd5b5061058b600480360381019080803561ffff169060200190929190803560ff169060200190929190803560ff169060200190929190803560ff169060200190929190803560ff169060200190929190803560ff169060200190929190505050610d59565b6040518082815260200191505060405180910390f35b3480156105ad57600080fd5b506105cc60048036038101908080359060200190929190505050611000565b604051808261ffff1661ffff16815260200191505060405180910390f35b3480156105f657600080fd5b50610615600480360381019080803590602001909291905050506110ab565b604051808260ff1660ff16815260200191505060405180910390f35b34801561063d57600080fd5b50610660600480360381019080803561ffff1690602001909291905050506110c1565b604051808215151515815260200191505060405180910390f35b34801561068657600080fd5b506106a560048036038101908080359060200190929190505050611142565b6040518082815260200191505060405180910390f35b3480156106c757600080fd5b506106f7600480360381019080803560ff169060200190929190803561ffff16906020019092919050505061117b565b604051808260ff1660ff16815260200191505060405180910390f35b34801561071f57600080fd5b5061074c600480360381019080803560001916906020019092919080359060200190929190505050611247565b005b34801561075a57600080fd5b506107836004803603810190808035906020019092919080359060200190929190505050611947565b005b34801561079157600080fd5b506107b060048036038101908080359060200190929190505050611e8f565b604051808c81526020018b73ffffffffffffffffffffffffffffffffffffffff1673ffffffffffffffffffffffffffffffffffffffff1681526020018a815260200189815260200188815260200187815260200180602001868152602001851515151581526020018460ff1660ff16815260200183600381111561083057fe5b60ff168152602001828103825287818151815260200191508051906020019080838360005b83811015610870578082015181840152602081019050610855565b50505050905090810190601f16801561089d5780820380516001836020036101000a031916815260200191505b509c5050505050505050505050505060405180910390f35b3480156108c157600080fd5b506108e060048036038101908080359060200190929190505050611fd7565b604051808260ff1660ff16815260200191505060405180910390f35b60136020528160005260406000208181548110151561091757fe5b90600052602060002001600091509150505481565b60006018603c808481151561093d57fe5b0481151561094757fe5b0481151561095157fe5b069050919050565b600060076004620151808481151561096d57fe5b040181151561097857fe5b069050919050565b600860009054906101000a900460ff1681565b600a816002811015156109a257fe5b60040201600091509050806000018054600181600116156101000203166002900480601f016020809104026020016040519081016040528092919081815260200182805460018160011615610100020316600290048015610a445780601f10610a1957610100808354040283529160200191610a44565b820191906000526020600020905b815481529060010190602001808311610a2757829003601f168201915b5050505050908060010154908060020154908060030154905084565b6000610a7186868686866000610d59565b905095945050505050565b6000610a8782611ff8565b604001519050919050565b6000610aa385858585600080610d59565b9050949350505050565b60008086600a8460ff16600281101515610ac357fe5b60040201600101540234141515610b42576040517f08c379a00000000000000000000000000000000000000000000000000000000081526004018080602001828103825260188152602001807f496e636f7272656374205072656d69756d20416d6f756e74000000000000000081525060200191505060405180910390fd5b60128054809190600101610b56919061316f565b9150601360003373ffffffffffffffffffffffffffffffffffffffff1673ffffffffffffffffffffffffffffffffffffffff168152602001908152602001600020829080600181540180825580915050906001820390600052602060002001600090919290919091505550601282815481101515610bd057fe5b90600052602060002090600902019050338160010160006101000a81548173ffffffffffffffffffffffffffffffffffffffff021916908373ffffffffffffffffffffffffffffffffffffffff16021790555086600a8460ff16600281101515610c3657fe5b6004020160010154028160020181905550868160030181905550428160040181905550603c806018601e600a8760ff16600281101515610c7257fe5b600402016002015402020202420181600501819055508585826006019190610c9b9291906131a1565b5086600a8460ff16600281101515610caf57fe5b6004020160030154028160070181905550838160080160006101000a81548160ff021916908315150217905550828160080160016101000a81548160ff021916908360ff16021790555060018160080160026101000a81548160ff02191690836003811115610d1a57fe5b021790555050505050505050565b6000603c82811515610d3657fe5b069050919050565b6000610d508484846000806000610d59565b90509392505050565b600080610d64613221565b6107b291505b8861ffff168261ffff161015610dad57610d83826110c1565b15610d96576301e2850083019250610da0565b6301e13380830192505b8180600101925050610d6a565b601f816000600c81101515610dbe57fe5b602002019060ff16908160ff1681525050610dd8896110c1565b15610e0457601d816001600c81101515610dee57fe5b602002019060ff16908160ff1681525050610e27565b601c816001600c81101515610e1557fe5b602002019060ff16908160ff16815250505b601f816002600c81101515610e3857fe5b602002019060ff16908160ff1681525050601e816003600c81101515610e5a57fe5b602002019060ff16908160ff1681525050601f816004600c81101515610e7c57fe5b602002019060ff16908160ff1681525050601e816005600c81101515610e9e57fe5b602002019060ff16908160ff1681525050601f816006600c81101515610ec057fe5b602002019060ff16908160ff1681525050601f816007600c81101515610ee257fe5b602002019060ff16908160ff1681525050601e816008600c81101515610f0457fe5b602002019060ff16908160ff1681525050601f816009600c81101515610f2657fe5b602002019060ff16908160ff1681525050601e81600a600c81101515610f4857fe5b602002019060ff16908160ff1681525050601f81600b600c81101515610f6a57fe5b602002019060ff16908160ff1681525050600191505b8760ff168261ffff161015610fc257806001830361ffff16600c81101515610fa457fe5b602002015160ff166201518002830192508180600101925050610f80565b6001870360ff166201518002830192508560ff16610e1002830192508460ff16603c02830192508360ff168301925082925050509695505050505050565b600080600080600092506301e133808581151561101957fe5b046107b261ffff160191506110336107b261ffff16611142565b6110408361ffff16611142565b039050806301e285000283019250806107b2830361ffff16036301e1338002830192505b848311156110a057611078600183036110c1565b1561108b576301e2850083039250611095565b6301e13380830392505b600182039150611064565b819350505050919050565b60006110b682611ff8565b602001519050919050565b60008060048361ffff168115156110d457fe5b0661ffff161415156110e9576000905061113d565b600060648361ffff168115156110fb57fe5b0661ffff16141515611110576001905061113d565b60006101908361ffff1681151561112357fe5b0661ffff16141515611138576000905061113d565b600190505b919050565b60006001820391506101908281151561115757fe5b0460648381151561116457fe5b0460048481151561117157fe5b0403019050919050565b600060018360ff161480611192575060038360ff16145b806111a0575060058360ff16145b806111ae575060078360ff16145b806111bc575060088360ff16145b806111ca5750600a8360ff16145b806111d85750600c8360ff16145b156111e657601f9050611241565b60048360ff1614806111fb575060068360ff16145b80611209575060098360ff16145b806112175750600b8360ff16145b1561122557601e9050611241565b61122e826110c1565b1561123c57601d9050611241565b601c90505b92915050565b60008260056000826000191660001916815260200190815260200160002060009054906101000a900473ffffffffffffffffffffffffffffffffffffffff1673ffffffffffffffffffffffffffffffffffffffff163373ffffffffffffffffffffffffffffffffffffffff1614151561134e576040517f08c379a00000000000000000000000000000000000000000000000000000000081526004018080602001828103825260288152602001807f536f75726365206d75737420626520746865206f7261636c65206f662074686581526020017f207265717565737400000000000000000000000000000000000000000000000081525060400191505060405180910390fd5b60056000826000191660001916815260200190815260200160002060006101000a81549073ffffffffffffffffffffffffffffffffffffffff021916905580600019167f7cc135e0cebb02c3480ae5d74d377283180a2601f8f644edf7987b009316c63a60405160405180910390a26001600860006101000a81548160ff02191690831515021790555060126009548154811015156113e957fe5b906000526020600020906009020160080160009054906101000a900460ff16156116a557600a60ff16831215611487576040517f08c379a00000000000000000000000000000000000000000000000000000000081526004018080602001828103825260118152602001807f5468657265206973204e6f20466c6f6f6400000000000000000000000000000081525060200191505060405180910390fd5b600f60ff1683131561159b5760648060ff1660126009548154811015156114aa57fe5b906000526020600020906009020160070154028115156114c657fe5b04915060126009548154811015156114da57fe5b906000526020600020906009020160010160009054906101000a900473ffffffffffffffffffffffffffffffffffffffff1673ffffffffffffffffffffffffffffffffffffffff166108fc839081150290604051600060405180830381858888f19350505050158015611551573d6000803e3d6000fd5b506002601260095481548110151561156557fe5b906000526020600020906009020160080160026101000a81548160ff0219169083600381111561159157fe5b02179055506116a0565b6064603260ff1660126009548154811015156115b357fe5b906000526020600020906009020160070154028115156115cf57fe5b04915060126009548154811015156115e357fe5b906000526020600020906009020160010160009054906101000a900473ffffffffffffffffffffffffffffffffffffffff1673ffffffffffffffffffffffffffffffffffffffff166108fc839081150290604051600060405180830381858888f1935050505015801561165a573d6000803e3d6000fd5b506002601260095481548110151561166e57fe5b906000526020600020906009020160080160026101000a81548160ff0219169083600381111561169a57fe5b02179055505b611939565b600560ff1683131561171f576040517f08c379a00000000000000000000000000000000000000000000000000000000081526004018080602001828103825260138152602001807f5468657265206973204e6f2044726f756768740000000000000000000000000081525060200191505060405180910390fd5b600260ff168312156118335760648060ff16601260095481548110151561174257fe5b9060005260206000209060090201600701540281151561175e57fe5b049150601260095481548110151561177257fe5b906000526020600020906009020160010160009054906101000a900473ffffffffffffffffffffffffffffffffffffffff1673ffffffffffffffffffffffffffffffffffffffff166108fc839081150290604051600060405180830381858888f193505050501580156117e9573d6000803e3d6000fd5b50600260126009548154811015156117fd57fe5b906000526020600020906009020160080160026101000a81548160ff0219169083600381111561182957fe5b0217905550611938565b6064603260ff16601260095481548110151561184b57fe5b9060005260206000209060090201600701540281151561186757fe5b049150601260095481548110151561187b57fe5b906000526020600020906009020160010160009054906101000a900473ffffffffffffffffffffffffffffffffffffffff1673ffffffffffffffffffffffffffffffffffffffff166108fc839081150290604051600060405180830381858888f193505050501580156118f2573d6000803e3d6000fd5b506002601260095481548110151561190657fe5b906000526020600020906009020160080160026101000a81548160ff0219169083600381111561193257fe5b02179055505b5b611941612199565b50505050565b60606000606060006060600060608060128a81548110151561196557fe5b906000526020600020906009020160010160009054906101000a900473ffffffffffffffffffffffffffffffffffffffff1673ffffffffffffffffffffffffffffffffffffffff163373ffffffffffffffffffffffffffffffffffffffff16141515611a39576040517f08c379a00000000000000000000000000000000000000000000000000000000081526004018080602001828103825260138152602001807f55736572204e6f7420417574686f72697a65640000000000000000000000000081525060200191505060405180910390fd5b60016003811115611a4657fe5b60128b815481101515611a5557fe5b906000526020600020906009020160080160029054906101000a900460ff166003811115611a7f57fe5b141515611af4576040517f08c379a00000000000000000000000000000000000000000000000000000000081526004018080602001828103825260118152602001807f506f6c696379204e6f742041637469766500000000000000000000000000000081525060200191505060405180910390fd5b8860128b815481101515611b0457fe5b90600052602060002090600902016004015411151515611b8c576040517f08c379a000000000000000000000000000000000000000000000000000000000815260040180806020018281038252600a8152602001807f57726f6e6720646174650000000000000000000000000000000000000000000081525060200191505060405180910390fd5b60128a815481101515611b9b57fe5b906000526020600020906009020160050154421115611c6457600360128b815481101515611bc557fe5b906000526020600020906009020160080160026101000a81548160ff02191690836003811115611bf157fe5b02179055506040517f08c379a000000000000000000000000000000000000000000000000000000000815260040180806020018281038252601a8152602001807f506f6c696379277320706572696f642068617320456e6465642e00000000000081525060200191505060405180910390fd5b60128a815481101515611c7357fe5b90600052602060002090600902016006018054600181600116156101000203166002900480601f016020809104026020016040519081016040528092919081815260200182805460018160011615610100020316600290048015611d185780601f10611ced57610100808354040283529160200191611d18565b820191906000526020600020905b815481529060010190602001808311611cfb57829003601f168201915b50505050509750611d2889611000565b9650611d378761ffff166121be565b9550611d42896110ab565b60ff169450611d548561ffff166121be565b9350611d5f89610a7c565b60ff169250611d718361ffff166121be565b9150611dcb611db46040805190810160405280600181526020017f2d0000000000000000000000000000000000000000000000000000000000000081525061239b565b611dbd8861239b565b6123c990919063ffffffff16565b9050611df0611dd98561239b565b611de28361239b565b6123c990919063ffffffff16565b9050611e4a611e336040805190810160405280600181526020017f2d0000000000000000000000000000000000000000000000000000000000000081525061239b565b611e3c8361239b565b6123c990919063ffffffff16565b9050611e6f611e588361239b565b611e618361239b565b6123c990919063ffffffff16565b905089600981905550611e82888261244b565b5050505050505050505050565b601281815481101515611e9e57fe5b90600052602060002090600902016000915090508060000154908060010160009054906101000a900473ffffffffffffffffffffffffffffffffffffffff1690806002015490806003015490806004015490806005015490806006018054600181600116156101000203166002900480601f016020809104026020016040519081016040528092919081815260200182805460018160011615610100020316600290048015611f8e5780601f10611f6357610100808354040283529160200191611f8e565b820191906000526020600020905b815481529060010190602001808311611f7157829003601f168201915b5050505050908060070154908060080160009054906101000a900460ff16908060080160019054906101000a900460ff16908060080160029054906101000a900460ff1690508b565b6000603c8083811515611fe657fe5b04811515611ff057fe5b069050919050565b612000613245565b6000806000806000935061201386611000565b856000019061ffff16908161ffff16815250506120356107b261ffff16611142565b612046866000015161ffff16611142565b039250826301e285000284019350826107b286600001510361ffff16036301e133800284019350600191505b600c8260ff161115156120ca5761208d82866000015161117b565b60ff16620151800290508584820111156120b85781856020019060ff16908160ff16815250506120ca565b80840193508180600101925050612072565b600191505b6120e18560200151866000015161117b565b60ff168260ff16111515612128578584620151800111156121135781856040019060ff16908160ff1681525050612128565b620151808401935081806001019250506120cf565b6121318661092c565b856060019060ff16908160ff168152505061214b86611fd7565b856080019060ff16908160ff168152505061216586610d28565b8560a0019060ff16908160ff168152505061217f86610959565b8560c0019060ff16908160ff168152505050505050919050565b6000600860006101000a81548160ff0219169083151502179055506000600981905550565b6060600060606000806060600060649550856040519080825280601f01601f1916602001820160405280156122025781602001602082028038833980820191505090505b509450600093505b6000881415156122a157600a8881151561222057fe5b069250600a8881151561222f57fe5b049750826030017f010000000000000000000000000000000000000000000000000000000000000002858580600101965081518110151561226c57fe5b9060200101907effffffffffffffffffffffffffffffffffffffffffffffffffffffffffffff1916908160001a90535061220a565b836040519080825280601f01601f1916602001820160405280156122d45781602001602082028038833980820191505090505b509150600090505b8381101561238d57848160018603038151811015156122f757fe5b9060200101517f010000000000000000000000000000000000000000000000000000000000000090047f010000000000000000000000000000000000000000000000000000000000000002828281518110151561235057fe5b9060200101907effffffffffffffffffffffffffffffffffffffffffffffffffffffffffffff1916908160001a90535080806001019150506122dc565b819650505050505050919050565b6123a3613299565b600060208301905060408051908101604052808451815260200182815250915050919050565b606080600083600001518560000151016040519080825280601f01601f19166020018201604052801561240b5781602001602082028038833980820191505090505b5091506020820190506124278186602001518760000151612636565b6124408560000151820185602001518660000151612636565b819250505092915050565b60006124556132b3565b6124856007543063bda71d047c010000000000000000000000000000000000000000000000000000000002612681565b90506124d16040805190810160405280600181526020017f710000000000000000000000000000000000000000000000000000000000000081525085836126b29092919063ffffffff16565b61251b6040805190810160405280600481526020017f646174650000000000000000000000000000000000000000000000000000000081525084836126b29092919063ffffffff16565b61259a6040805190810160405280600281526020017f74700000000000000000000000000000000000000000000000000000000000008152506040805190810160405280600281526020017f3234000000000000000000000000000000000000000000000000000000000000815250836126b29092919063ffffffff16565b6126196040805190810160405280600881526020017f636f7079506174680000000000000000000000000000000000000000000000008152506040805190810160405280602081526020017f646174612e776561746865722e302e686f75726c792e302e7072656369704d4d815250836126b29092919063ffffffff16565b61262d6126246126e5565b8260065461270f565b91505092915050565b60005b60208210151561265e5782518452602084019350602083019250602082039150612639565b6001826020036101000a0390508019835116818551168181178652505050505050565b6126896132b3565b6126916132b3565b6126a885858584612a9b909392919063ffffffff16565b9150509392505050565b6126c9828460800151612b5590919063ffffffff16565b6126e0818460800151612b5590919063ffffffff16565b505050565b6000600360009054906101000a900473ffffffffffffffffffffffffffffffffffffffff16905090565b600030600454604051602001808373ffffffffffffffffffffffffffffffffffffffff1673ffffffffffffffffffffffffffffffffffffffff166c01000000000000000000000000028152601401828152602001925050506040516020818303038152906040526040518082805190602001908083835b6020831015156127ab5780518252602082019150602081019050602083039250612786565b6001836020036101000a038019825116818451168082178552505050505050905001915050604051809103902090506004548360600181815250508360056000836000191660001916815260200190815260200160002060006101000a81548173ffffffffffffffffffffffffffffffffffffffff021916908373ffffffffffffffffffffffffffffffffffffffff16021790555080600019167fb5e6e01e79f91267dc17b4e6314d5d4d03593d2ceee0fbb452b750bd70ea5af960405160405180910390a2600260009054906101000a900473ffffffffffffffffffffffffffffffffffffffff1673ffffffffffffffffffffffffffffffffffffffff16634000aea085846128ba87612b7a565b6040518463ffffffff167c0100000000000000000000000000000000000000000000000000000000028152600401808473ffffffffffffffffffffffffffffffffffffffff1673ffffffffffffffffffffffffffffffffffffffff16815260200183815260200180602001828103825283818151815260200191508051906020019080838360005b8381101561295d578082015181840152602081019050612942565b50505050905090810190601f16801561298a5780820380516001836020036101000a031916815260200191505b50945050505050602060405180830381600087803b1580156129ab57600080fd5b505af11580156129bf573d6000803e3d6000fd5b505050506040513d60208110156129d557600080fd5b81019080805190602001909291905050501515612a80576040517f08c379a00000000000000000000000000000000000000000000000000000000081526004018080602001828103825260238152602001807f756e61626c6520746f207472616e73666572416e6443616c6c20746f206f726181526020017f636c65000000000000000000000000000000000000000000000000000000000081525060400191505060405180910390fd5b60016004600082825401925050819055508090509392505050565b612aa36132b3565b612ab38560800151610100612da5565b50838560000190600019169081600019168152505082856020019073ffffffffffffffffffffffffffffffffffffffff16908173ffffffffffffffffffffffffffffffffffffffff16815250508185604001907bffffffffffffffffffffffffffffffffffffffffffffffffffffffff191690817bffffffffffffffffffffffffffffffffffffffffffffffffffffffff191681525050849050949350505050565b612b628260038351612dff565b612b758183612f5d90919063ffffffff16565b505050565b6060600360009054906101000a900473ffffffffffffffffffffffffffffffffffffffff1673ffffffffffffffffffffffffffffffffffffffff16634042994690507c01000000000000000000000000000000000000000000000000000000000260008084600001518560200151866040015187606001516001896080015160000151604051602401808973ffffffffffffffffffffffffffffffffffffffff1673ffffffffffffffffffffffffffffffffffffffff16815260200188815260200187600019166000191681526020018673ffffffffffffffffffffffffffffffffffffffff1673ffffffffffffffffffffffffffffffffffffffff168152602001857bffffffffffffffffffffffffffffffffffffffffffffffffffffffff19167bffffffffffffffffffffffffffffffffffffffffffffffffffffffff1916815260200184815260200183815260200180602001828103825283818151815260200191508051906020019080838360005b83811015612d08578082015181840152602081019050612ced565b50505050905090810190601f168015612d355780820380516001836020036101000a031916815260200191505b509950505050505050505050604051602081830303815290604052907bffffffffffffffffffffffffffffffffffffffffffffffffffffffff19166020820180517bffffffffffffffffffffffffffffffffffffffffffffffffffffffff83818316178352505050509050919050565b612dad613321565b6000602083811515612dbb57fe5b06141515612dd857602082811515612dcf57fe5b06602003820191505b81836020018181525050604051808452600081528281016020016040525082905092915050565b601781111515612e3157612e2b8160058460ff169060020a0260ff161784612f7f90919063ffffffff16565b50612f58565b60ff81111515612e7857612e5b601860058460ff169060020a021784612f7f90919063ffffffff16565b50612e7281600185612f9f9092919063ffffffff16565b50612f57565b61ffff81111515612ec057612ea3601960058460ff169060020a021784612f7f90919063ffffffff16565b50612eba81600285612f9f9092919063ffffffff16565b50612f56565b63ffffffff81111515612f0a57612eed601a60058460ff169060020a021784612f7f90919063ffffffff16565b50612f0481600485612f9f9092919063ffffffff16565b50612f55565b67ffffffffffffffff81111515612f5457612f3b601b60058460ff169060020a021784612f7f90919063ffffffff16565b50612f5281600885612f9f9092919063ffffffff16565b505b5b5b5b5b505050565b612f65613321565b612f7783846000015151848551612fc1565b905092915050565b612f87613321565b612f97838460000151518461307e565b905092915050565b612fa7613321565b612fb88485600001515185856130ce565b90509392505050565b612fc9613321565b600080600085518511151515612fde57600080fd5b87602001518588011115613009576130088860026130028b602001518b8a0161312f565b0261314b565b5b8751805188602083010194508089880111156130255788870182525b60208801935050505b602085101515613053578151835260208301925060208201915060208503945061302e565b6001856020036101000a03905080198251168184511681811785525050879350505050949350505050565b613086613321565b8360200151831015156130a5576130a484600286602001510261314b565b5b83518051602085830101848153818614156130c1576001820183525b5050508390509392505050565b6130d6613321565b6000856020015185840111156130f6576130f58660028786010261314b565b5b6001836101000a03905085518386820101858319825116178152815185880111156131215784870182525b505085915050949350505050565b60008183111561314157829050613145565b8190505b92915050565b60608260000151905061315e8383612da5565b506131698382612f5d565b50505050565b81548183558181111561319c5760090281600902836000526020600020918201910161319b919061333b565b5b505050565b828054600181600116156101000203166002900490600052602060002090601f016020900481019282601f106131e257803560ff1916838001178555613210565b82800160010185558215613210579182015b8281111561320f5782358255916020019190600101906131f4565b5b50905061321d91906133fd565b5090565b61018060405190810160405280600c90602082028038833980820191505090505090565b60e060405190810160405280600061ffff168152602001600060ff168152602001600060ff168152602001600060ff168152602001600060ff168152602001600060ff168152602001600060ff1681525090565b604080519081016040528060008152602001600081525090565b60c06040519081016040528060008019168152602001600073ffffffffffffffffffffffffffffffffffffffff16815260200160007bffffffffffffffffffffffffffffffffffffffffffffffffffffffff191681526020016000815260200161331b613422565b81525090565b604080519081016040528060608152602001600081525090565b6133fa91905b808211156133f6576000808201600090556001820160006101000a81549073ffffffffffffffffffffffffffffffffffffffff021916905560028201600090556003820160009055600482016000905560058201600090556006820160006133a9919061343c565b60078201600090556008820160006101000a81549060ff02191690556008820160016101000a81549060ff02191690556008820160026101000a81549060ff021916905550600901613341565b5090565b90565b61341f91905b8082111561341b576000816000905550600101613403565b5090565b90565b604080519081016040528060608152602001600081525090565b50805460018160011615610100020316600290046000825580601f106134625750613481565b601f01602090049060005260206000209081019061348091906133fd565b5b505600a165627a7a723058201a11de483a6e33724dea103b28ab8912f5cf34bc538c34970ee7b223507b358b0029",
  "source": "pragma solidity 0.4.24;\n\nimport \"../node_modules/chainlink/contracts/ChainlinkClient.sol\";\nimport \"./DateTime.sol\";\nimport \"./strings.sol\";\n\ncontract Agrinsure is ChainlinkClient, DateTime{\n    using strings for *;\n\n    uint256 private oraclePaymentAmount;\n    bytes32 private jobId;\n\n    bool public resultReceived;\n    //int256 public result;\n\n    uint private claimPolicyId;\n\n    //for BaseMin to BaseMax -> BasePayout% . for > Max -> MaxPayout%\n    uint8 constant floodBaseMin = 10;\n    uint8 constant floodBaseMax = 15;\n    uint8 constant floodBasePayout = 50;  //50% of coverage\n    uint8 constant floodMaxPayout = 100;  //100% of coverage\n\n    //for BaseMin to BaseMax -> BasePayout% . for < Min -> MaxPayout%\n    uint8 constant droughtBaseMin = 2;\n    uint8 constant droughtBaseMax = 5;\n    uint8 constant droughtBasePayout = 50;  //50% of coverage\n    uint8 constant droughtMaxPayout = 100;  //100% of coverage\n\n    struct cropType {\n        string name;\n        uint premiumPerAcre;    //in wei\n        uint duration;          //in months\n        uint coveragePerAcre;   //in wei\n    }\n\n    cropType[2] public cropTypes; //crops defined in constructor\n\n    enum policyState {Pending, Active, PaidOut, TimedOut}\n\n    struct policy {\n        uint policyId;\n        address user;\n        uint premium;\n        uint area;\n        uint startTime;\n        uint endTime;         //crop's season dependent\n        string location;\n        uint coverageAmount;  //depends on crop type\n        bool forFlood;\n        uint8 cropId;\n        policyState state;\n    }\n\n    policy[] public policies;\n\n    mapping(address => uint[]) public userPolicies;  //user address to array of policy IDs\n\n    function newPolicy (uint _area, string _location, bool _forFlood, uint8 _cropId) external payable{\n        require(msg.value == (cropTypes[_cropId].premiumPerAcre * _area),\"Incorrect Premium Amount\");\n\n        uint pId = policies.length++;\n        userPolicies[msg.sender].push(pId);\n        policy storage p = policies[pId];\n\n        p.user = msg.sender;\n        p.premium = cropTypes[_cropId].premiumPerAcre * _area;\n        p.area = _area;\n        p.startTime = now;\n        p.endTime = now + cropTypes[_cropId].duration * 30*24*60*60;  //converting months to seconds\n        p.location = _location;\n        p.coverageAmount = cropTypes[_cropId].coveragePerAcre * _area;\n        p.forFlood = _forFlood;\n        p.cropId = _cropId;\n        p.state = policyState.Active;\n    }\n\n    function newCrop(uint8 _cropId,string _name, uint _premiumPerAcre, uint _duration, uint _coveragePerAcre) internal {\n        cropType memory c = cropType(_name, _premiumPerAcre, _duration, _coveragePerAcre);\n        cropTypes[_cropId] = c;\n    }\n\n    constructor(\n        address _link,\n        address _oracle,\n        bytes32 _jobId,\n        uint256 _oraclePaymentAmount\n        )\n    public\n    {\n        setChainlinkToken(_link);\n        setChainlinkOracle(_oracle);\n        jobId = _jobId;\n        oraclePaymentAmount = _oraclePaymentAmount;\n\n        newCrop(0, \"rabi\", 1, 6, 7);\n        newCrop(1, \"kharif\", 2, 4, 10);\n    }\n\n    function claim(uint _policyId, uint _timestamp) public {\n        require(msg.sender == policies[_policyId].user, \"User Not Authorized\");\n        require(policies[_policyId].state == policyState.Active, \"Policy Not Active\");\n        require(policies[_policyId].startTime <= _timestamp, \"Wrong date\");\n        if(now > policies[_policyId].endTime)\n        {\n            policies[_policyId].state = policyState.TimedOut;\n            revert(\"Policy's period has Ended.\");\n        }\n        // if(_timestamp < policies[_policyId].startTime)\n        //     revert(\"Insurance Not Covered by Policy\");\n\n        string memory location = policies[_policyId].location;\n\n        uint16 year = getYear(_timestamp);\n        string memory y = uintToString(year);\n        uint16 month = getMonth(_timestamp);\n        string memory m = uintToString(month);\n        uint16 day = getDay(_timestamp);\n        string memory d = uintToString(day);\n\n        string memory date = y.toSlice().concat(\"-\".toSlice());\n        date = date.toSlice().concat(m.toSlice());\n        date = date.toSlice().concat(\"-\".toSlice());\n        date = date.toSlice().concat(d.toSlice());\n\n        claimPolicyId = _policyId;\n        makeRequest(location, date);\n\n    }\n\n    function makeRequest(string _location, string _date) internal returns (bytes32 requestId)\n    {\n        Chainlink.Request memory req = buildChainlinkRequest(jobId, this, this.fulfill.selector);\n        req.add(\"q\", _location);      //location\n        req.add(\"date\", _date); //format: yyyy-MM-dd\n        req.add(\"tp\", \"24\");           //timeperiod 24hrs\n        req.add(\"copyPath\", \"data.weather.0.hourly.0.precipMM\"); //get that day's precipitation in mm\n        requestId = sendChainlinkRequestTo(chainlinkOracleAddress(), req, oraclePaymentAmount);\n    }\n\n    function resetResult() internal\n    {\n        resultReceived = false;\n        //result = 0;\n        claimPolicyId = 0;\n    }\n\n    function fulfill(bytes32 _requestId, int256 _result)\n    public\n    recordChainlinkFulfillment(_requestId)\n    {\n        resultReceived = true;\n        //result = _result;\n        uint payoutAmount;\n\n        if(policies[claimPolicyId].forFlood)\n        {\n            if(_result < floodBaseMin)\n                revert(\"There is No Flood\");\n\n            if(_result > floodBaseMax)\n            {\n                payoutAmount = uint(policies[claimPolicyId].coverageAmount * floodMaxPayout/100);\n                policies[claimPolicyId].user.transfer(payoutAmount);\n                policies[claimPolicyId].state = policyState.PaidOut;\n            }\n            else\n            {\n                payoutAmount = uint(policies[claimPolicyId].coverageAmount * floodBasePayout/100);\n                policies[claimPolicyId].user.transfer(payoutAmount);\n                policies[claimPolicyId].state = policyState.PaidOut;\n            }\n        }\n        else\n        {\n            if(_result > droughtBaseMax)\n                revert(\"There is No Drought\");\n\n            if(_result < droughtBaseMin)\n            {\n                payoutAmount = uint(policies[claimPolicyId].coverageAmount * droughtMaxPayout/100);\n                policies[claimPolicyId].user.transfer(payoutAmount);\n                policies[claimPolicyId].state = policyState.PaidOut;\n            }\n            else\n            {\n                payoutAmount = uint(policies[claimPolicyId].coverageAmount * droughtBasePayout/100);\n                policies[claimPolicyId].user.transfer(payoutAmount);\n                policies[claimPolicyId].state = policyState.PaidOut;\n            }\n        }\n\n        resetResult();\n    }\n    \n    //Fallback function to implement the ability for the Contract Address to Accept Ether\n    function() public payable {}\n\n    function uintToString(uint v) pure internal returns (string str) {\n        uint maxlength = 100;\n        bytes memory reversed = new bytes(maxlength);\n        uint i = 0;\n        while (v != 0) {\n            uint remainder = v % 10;\n            v = v / 10;\n            reversed[i++] = byte(48 + remainder);\n        }\n        bytes memory s = new bytes(i);\n        for (uint j = 0; j < i; j++) {\n            s[j] = reversed[i - 1 - j];\n        }\n        str = string(s);\n    }\n}",
  "sourcePath": "/home/rocky/Mini project/CropInsure/contracts/MyContract.sol",
  "compiler": {
    "name": "solc",
    "version": "0.4.24+commit.e67f0147.Emscripten.clang"
  },
  "schemaVersion": "3.1.0",
  "updatedAt": "2020-06-11T21:28:42.289Z",
  "devdoc": {
    "methods": {}
  },
  "userdoc": {
    "methods": {}
  }
}